:020000040001F9
:10400000E833002021420100334201003542010023
:1040100000000000000000000000000000000000A0
:104020000000000000000000000000003742010016
:104030000000000000000000394201003B42010086
:104040003D4201003D4201006F4801003D42010038
:104050003D420100000000003D4201003D420100E0
:104060003D4201003D4201003D4201003D42010050
:104070003D4201003D4201003D4201003D42010040
:104080003D4201002B6101003D4201003D42010023
:104090004D6101003D420100DB5701003D4201003E
:1040A0003D4201003D420100000000000000000010
:1040B0000000000000000000000000000000000000
:1040C00000F002F800F040F80CA030C808382418BE
:1040D0002D18A246671EAB4654465D46AC4201D140
:1040E00000F032F87E460F3E0FCCB6460126334232
:1040F00000D0FB1AA246AB4633431847102B0000F2
:10410000302B0000103A02D378C878C1FAD8520791
:1041100001D330C830C101D504680C60704700007D
:104120000023002400250026103A01D378C1FBD8D3
:10413000520700D330C100D50B6070471FB5C04691
:10414000C0461FBD10B510BD02F024FD1146FFF79B
:10415000F5FF00F0BDFB02F03CFD03B4FFF7F2FFFA
:1041600003BC02F041FD0000401E00BF00BF00BFC5
:1041700000BF00BF00BF00BF00BF00BF00BF00BF47
:1041800000BFF1D170470000401E00BF00BF00BF5C
:1041900000BF00BF00BF00BF00BF00BF00BF00BF27
:1041A00000BFF1D170470000401E00BF00BF00BF3C
:1041B00000BF00BF00BF00BF00BF00BF00BF00BF07
:1041C00000BFF1D170470000401E00BF00BF00BF1C
:1041D00000BF00BF00BF00BF00BF00BF00BF00BFE7
:1041E00000BFF1D17047000070B505460C46164679
:1041F00002E00FCC0FC5103E102EFAD2082E02D3CB
:1042000003CC03C5083E042E07D301CC01C5361FDD
:1042100003E021782970641C6D1C761EF9D270BDF4
:104220000A4802680F210A4302600948804709488A
:104230000047FEE7FEE7FEE7FEE7FEE7FEE70000D9
:1042400005480649064A074B704700002405004010
:104250000D430100C1400100E8230020E8330020A5
:10426000E82B0020E82B00203248334908607047D3
:104270003248008CC0B2012812D13048808C00072F
:10428000000F00280CD12D48806AF02108404028FA
:1042900006D12A48C06A0840002801D10120704791
:1042A0000020FCE72548008CC0B201282CD123480F
:1042B000808C0007000F002826D12048806AF0215A
:1042C0000840002806D11D48C06A0840002801D1D6
:1042D000012070471948806AF0210840102806D153
:1042E0001648C06A0840002801D10120F1E71348B0
:1042F000806AF0210840302806D11048C06A084082
:10430000002801D10120E4E70020E2E710B5FFF723
:10431000C9FF002805D00A480A494860C8130A495D
:104320008861FFF7A5FF002802D0012007498860B7
:1043300010BD00000024F40000200020C00F00F099
:10434000DFFF07C000050040006C00400006004091
:1043500030B513048C0023430524240707252D02C0
:1043600064198500635130BD00BFBFF34F8FF8481B
:10437000F849C860BFF34F8F00BF00BFFEE7034698
:104380000C4622461946F448FFF7EEFF10B5082008
:1043900000F0FEFA092000F0FBFA10BD38B500BFAE
:1043A0000020EE4B05220221009001F0D3FE0446CE
:1043B00000BF2346002B05D000BFE9A2912118467B
:1043C000FFF7D2FF00BF00BF38BD3EB500BF684653
:1043D000007801090901491C009168460078F02124
:1043E00088431030009000BF0B22E0A168467CDFBC
:1043F000044600BF2346002B05D000BFD8A2A5214C
:104400001846FFF7B1FF00BF002001900290102175
:10441000684681803C21C18000210181FF219131CA
:10442000418101A87ADF044600BF2346002B05D056
:1044300000BFCBA2AF211846FFF796FF00BF3EBDDD
:1044400010B5A0B005210191CB4800680090CB4881
:104450000178684681703C2111A802F096FB022089
:104460001190002110A841720121818101A91491AC
:104470003C2102A802F089FB01216846818469463B
:104480000A9102A911A800F036FF044600BF234696
:10449000002B05D000BFB2A2CC211846FFF764FF65
:1044A00000BF20B010BDF8B507460D4616460024E3
:1044B00003E0285D01F001FA641CB442F9DB00233B
:1044C0001A461021AEA002F060FA0A2001F0F5F9B8
:1044D000F8BD38B500200090AC4800906946A74868
:1044E00000F0E1FB044600BF2346002B05D000BFCF
:1044F0009BA2F2211846FFF737FF00BF38BD1E20F0
:10450000A34908800846807840084000401C887015
:1045100008468078022188439D4988700846807843
:104520001C2188430C309A498870084680782021E5
:104530008843974988700720C87010200871704719
:1045400070B505462868002810D13B2191480088A5
:1045500076DF044600BF2346002B06D000BF80A2B2
:10456000FF2117311846FFF7FFFE00BF70BD03465D
:1045700000BF7BA2FF2122311846FFF7F5FE10B5E0
:1045800088B01C2101A802F000FB0020019005204A
:1045900040040290801003900321684601740021BA
:1045A000418201757C4806907C48079001A800F084
:1045B0003EFF044600BF2346002B06D000BF68A282
:1045C000FF2139311846FFF7CFFE00BF08B010BDFC
:1045D00010B586B0142101A802F0D7FA0021684670
:1045E0000171002002906846017340218182B4214C
:1045F000C18201A873DF044600BF2346002B06D00A
:1046000000BF57A2FF214E311846FFF7ADFE00BF95
:10461000082000F0C6F906B010BD70B50546288820
:1046200014284ED006DC10280BD0112813D01328E4
:1046300072D11AE017283ED019286FD05228F7D12E
:1046400026E0092000F0ADF9082000F0AFF9A888B5
:1046500050490880A7E0092000F0A8F90020C043D5
:104660004C490880FFF7B4FF9DE0494A00214948C2
:1046700000887FDF044600BF2346002B06D000BF22
:1046800037A2FF2173311846FFF76EFE00BF8AE0A4
:10469000002211463F480088A9DF044600BF234698
:1046A000002B06D000BF2EA2FF2178311846FFF75D
:1046B0005BFE00BF77E03222A91D394802F006FAFE
:1046C00071E0374EB61D3188E889814211D1002250
:1046D00031463048008881DF044600BF2346002B66
:1046E00006D000BF1EA2FF2184311846FFF73CFE12
:1046F00011E0002211462748008881DF044600BFF0
:104700002346002B06D000BF15A2FF218A31184690
:10471000FFF72AFE00BF46E044E0FFE7A879002843
:1047200015D1082000F042F9032211461020FFF7AE
:104730000FFE31DF044600BF2346002B06D000BF2A
:1047400007A2FF219A311846FFF70EFE00BF2AE0AC
:104750000400FA0500ED00E0EFBEADDE9820002079
:104760002E2E5C6D61696E2E630000004E6F7264C8
:1047700069635F5541525400F86B01007C200020B2
:10478000207465737430312000000000A7440100DC
:10479000042000200A200020414501006F4501004F
:1047A000B022002000BF00BF70BD10B504462046F7
:1047B00000F011FF2146804800F052FA2046FFF732
:1047C0002CFF10BD70B500BF002350227B4908208C
:1047D00000F0BBFF054600BF2B46002B06D000BFF4
:1047E000774AFF21BC311846FFF7BEFD00BF00BF6E
:1047F000744800F0E0FF044600BF2346002B06D0BB
:1048000000BF6F4AFF21C0311846FFF7ADFD00BF62
:1048100070BD10B5032211461020FFF799FD10BDA1
:1048200010B53DDF044600BF2346002B06D000BF75
:10483000634AFF21D2311846FFF796FD00BF10BD35
:1048400008B501200B230A2209210090082001F05D
:104850004FF804205C4948600321022000F061F811
:10486000022001218140594A116000BF08BD10B5E6
:1048700000F0F8FF5649574A127888545548007896
:10488000401C5449087008460078401E5049085C96
:104890000A2803D04F480078132818DB4D480278C7
:1048A000521C4B49444800F03EFA0446082C0BD0F9
:1048B00000BF2346002B06D000BF414AFF21FB3139
:1048C0001846FFF751FD00BF00204249087010BD97
:1048D000FFF75CFDFFF762FDFFF79BFFFFF7B0FFFF
:1048E000FFF770FFFFF771FDFFF7F3FDFFF7A8FD7E
:1048F000FFF745FEFFF703FE37A000F0E9FF02F0E7
:1049000007F800231A46102136A002F03EF8FFF700
:104910005FFE00231A46102134A002F036F800BFD3
:10492000FEE710B5002819DA324A03071B0F083BCF
:104930009B089B00D2588307DC0EFF23A3409A43B9
:104940008B071B0E8407E40EA3401A43294B040770
:10495000240F083CA408A4001A5118E01B4A0323A2
:104960001B02D21883089B00D2588307DC0EFF235A
:10497000A3409A438B071B0E8407E40EA3401A43FF
:10498000124B032424021B198408A4001A5110BDE1
:1049900001210522120707231B02D2188300D150E0
:1049A000704701218140144A916070470121814084
:1049B000114AD160704700007C200020E4220020D2
:1049C00060470100AB4701000023004000E100E028
:1049D000342300200C20002053746172742E2E2E7C
:1049E0000A0000004F6B2061200000004F6B206226
:1049F000200000001CED00E0000500508A88828243
:104A000070470022D2438282704770B504460E463A
:104A1000B51D2988208A814213D1288B022810D104
:104A200000BF00BFA97EEA7E120211430846C107FB
:104A3000C90F002902D00120A0750FE00020A07549
:104A40000CE02888A188884208D1A069002805D0F8
:104A50002A8B29461A312046A369984770BD30B584
:104A60008FB004460D460020079000BF6846007FC7
:104A700001090901491C68460177007FF02188433C
:104A800010306946087700BF00BF6846407F0109C3
:104A90000901491C68464177407FF0218843103066
:104AA0006946487700BF6846807F06218843811C9D
:104AB000684681771C2108A802F067F808A80078EA
:104AC00010218843411808A80170002009900B901C
:104AD0000C9007A80D9000200E90217868468171F7
:104AE000032181800020009000BF68460078010902
:104AF0000901491C684601700078F0218843103094
:104B00006946087000BF00BF684640780109090186
:104B1000491C684641704078F0218843103069464E
:104B2000487000BF6846807806218843811C68462B
:104B300081708078082188430146684681708078BA
:104B400010218843014668468170807841084900F9
:104B5000491C68468170142102A802F016F801A8C9
:104B600002906846039001210182002141821421B4
:104B70008182608823460C3302AA08A9A2DF0FB005
:104B800030BD30B58FB004460D461C2108A801F099
:104B9000FCFF08A8007808218843411808A8017084
:104BA000007804218843011D08A8017000200990A5
:104BB0000B900C900D900E90217868468172022126
:104BC00001810020019000BF6846007901090901B8
:104BD000491C684601710079F0218843103069460C
:104BE000087100BF00BF6846407901090901491CEE
:104BF000684641714079F021884310306946487118
:104C000000BF6846807906218843811C684681710F
:104C10008079082188430146684681718079102196
:104C20008843014668468171807941084900491CE2
:104C300068468171142103A801F0A7FF02A8039020
:104C400001A804900121684681820021C1821421BB
:104C500001836088231D03AA08A9A2DF0FB030BD1D
:104C600070B505460C46002D01D0002C00D170BD5A
:104C70002088102804D0112807D050280FD109E02F
:104C800021462846FFF7BAFE0AE021462846FFF7EC
:104C9000B8FE05E021462846FFF7B7FE00E000BF5A
:104CA00000BF00BFE3E770B586B004460E46334B45
:104CB0000FCB01AD0FC5002C01D0002E02D10E206C
:104CC00006B070BD0020C043A0823068A061002003
:104CD000A075214601A862DF0546002D01D02846B7
:104CE000EEE721786846817501218182A21C05A921
:104CF0000120A0DF0546002D01D02846E0E731461F
:104D00002046FFF7ACFE0546002D01D02846D7E728
:104D100031462046FFF735FF0546002D01D02846D5
:104D2000CEE70020CCE737B584B004460D46002C12
:104D300002D10E2007B030BDA08A1149884202D0AE
:104D4000A07D002801D10820F4E76846008B1428D4
:104D500001DD0720EEE70020009001900290039013
:104D6000A18968460180039506A802900121684642
:104D70008170A08A6946A6DFDCE70000FC6B0100B9
:104D8000FFFF0000F7B584B004460F46069806788A
:104D9000B01C1F2803DC2079801C1F2802DD0C209A
:104DA00007B0F0BD1F20801B801E85B20295B11C8C
:104DB000781802A97DDF03900398002801D003989A
:104DC000EEE72068022808D168460089A84204DC82
:104DD00009200190684605890BE0082001902079A0
:104DE000002804D02079A84201DC257901E068463A
:104DF0000589681CC2B23046711CCEB23A543046A6
:104E0000721CD6B20199395406980178A81C08186A
:104E1000C1B2069801700020C2E7F8B505460C46FD
:104E20002078001D1F2801DD0C20F8BD684679DFC1
:104E30000646002E01D03046F7E703212278501CA9
:104E40002070A95419212278501C2070A954207870
:104E500041196846008800F08BFA217840182070CC
:104E60000020E2E7F8B505460F4616461C4668687E
:104E7000002801D10720F8BD2078801C298840181F
:104E80001F2801DD0C20F6E72878401CC1B22278EB
:104E9000501C2070B1542178481C207077542A8807
:104EA00023789819696801F011FE20782978401854
:104EB00020700020DFE730B503461078C01C1F28A3
:104EC00001DD0C2030BD02241578681C10704C5593
:104ED0000A241578681C10704C551578681C1070E1
:104EE0004B550020EEE7FFB587B006461D46109CE7
:104EF0000020069020780590002747E0B9007068F0
:104F000041180A886846028149884181002203A924
:104F100002A864DF04900498002802D004980BB023
:104F2000F0BD6846017B099881422ED10698002881
:104F300001D0002000E00220019020786946097B22
:104F40004118019808181F2801DD0C20E7E7069892
:104F5000002809D12078401C20702278511C089824
:104F60002170A854012006902078421903A902A8B4
:104F700064DF04900498002801D00498CFE72078DB
:104F80006946097B4018207000BF7F1C3088B842FA
:104F9000B4DC0698002806D021780598401C081A31
:104FA000C1B2059829540020B9E7FFB581B0074682
:104FB00015460A9E009602223846049B0299FFF786
:104FC00092FF0446002C02D0204605B0F0BD0096AA
:104FD000102229463846049BFFF785FF0446002C23
:104FE00001D02046F1E70020EFE7014608880628B7
:104FF00008DB08881922D201904205DD0888E14AC1
:10500000904201D0072070474888062808DB48886E
:105010001922D201904205DD4888DA4A904201D037
:105020000720F0E70888D74A904208D04888904285
:1050300005D008884A88904201DD0720E3E7002078
:10504000E1E7F8B506460D4614462078801D1F2876
:1050500001D90C20F8BD3046FFF7C7FF0746002FE7
:1050600001D03846F6E705212278501C2070A9545B
:1050700012212278501C2070A954227851193088AE
:1050800000F076F921784018207022785119708844
:1050900000F06EF92178401820700020DAE7F8B5AA
:1050A00005460E4614462879801CC7B22078801C1D
:1050B000C0191F2801DD0C20F8BD781CC1B2227870
:1050C000501C2070B154FF212278501C2070B15424
:1050D00022789119288800F04BF921784018207027
:1050E000A88800280EDDA868002801D10720E3E782
:1050F000AA8823789819A96801F0E8FC2078297912
:10510000401820700020D7E7FEB507460E4614462B
:10511000786B002801D10720FEBD0020019032E00D
:10512000796B0C22019850430D182879801CC0B26D
:1051300000900098401CC1B22278501C2070B154DD
:1051400016212278501C2070B15422789119288899
:1051500000F00EF9217840182070A88800280EDD94
:10516000A868002801D10720D6E7AA8823789819D3
:10517000A96801F0ABFC20782979401820700198CB
:10518000401CC0B201903820C15D01988142C7DC4B
:105190000020C1E7F8B504460F461646002500205A
:1051A00030702068002809D0324639462046FFF783
:1051B000E9FD0546002D01D02846F8BD607900289C
:1051C00008D031463846FFF728FE0546002D01D0AD
:1051D0002846F2E7208900280BDD33463A460121B4
:1051E00020460830FFF73EFE0546002D01D0284638
:1051F000E3E7206900280BD00020216908563246D9
:105200003946FFF758FE0546002D01D02846D4E761
:10521000A08A00280CDD3B460622022120461430DD
:105220000096FFF7C2FE0546002D01D02846C4E7D0
:10523000A08B00280CDD3B460722032120461C30B2
:105240000096FFF7B2FE0546002D01D02846B4E7D0
:10525000A08C00280CDD3B4615221421204624306A
:105260000096FFF7A2FE0546002D01D02846A4E7D0
:10527000E06A002809D032463946E06AFFF7E1FECD
:105280000546002D01D0284697E7206B002809D05D
:1052900032463946206BFFF702FF0546002D01D04C
:1052A00028468AE73820005D002809DD3246394665
:1052B0002046FFF729FF0546002D01D028467CE750
:1052C00028467AE701460889002808D0C8680028DF
:1052D00005D0C868007804221040002801D10720BA
:1052E00070470020FCE701460889002801DD0720FF
:1052F00070470020FCE7F3B593B00D4600211291F2
:1053000011911398002814D01398FFF7DBFF04467F
:10531000002C02D0204615B0F0BD12AA09A913989E
:10532000FFF738FF0446002C01D02046F3E709AE12
:1053300000E00026002D13D02846FFF7D4FF0446D6
:10534000002C01D02046E6E711AA01A92846FFF764
:1053500021FF0446002C01D02046DCE701AF00E02D
:10536000002710A803793A46017A304672DFD2E767
:1053700002460A70FF20000210400012487002200E
:1053800070470000FFFF000001464888B74A1288B6
:10539000904206DB4888B54A5288904201DC0120E1
:1053A00070470020FCE738B50546B1480088B14990
:1053B00088423BD0B0480078401CAF490870AF48E5
:1053C000007B097888420FDBA849A948008875DF6F
:1053D0000446002C07D0A9488069002803D0A748BC
:1053E00081692046884721E00020A3490870A3482E
:1053F000007C00280FD03B219D48008876DF0446C2
:10540000002C07D09D488069002803D09B48816903
:105410002046884700BF99484069002806D00020F0
:105420000090964841696846884700BF38BD70B50E
:1054300005461C2229469148FEF7D6FE00209049D9
:105440000870286800280BD008228848296801F0D5
:105450003DFB86487ADF0446002C08D0204670BD0C
:1054600082487BDF0446002C01D02046F7E700206D
:10547000C0437F49088000207F490870814A00218D
:10548000814800F0E2FEEAE710B57F48006800F0CE
:1054900054FF10BD38B57D48FFF776FF002829D1AD
:1054A0007748007800280AD074484069002820D046
:1054B00000200090714841696846884719E06E48AD
:1054C0000078002802D16D48456801E06B48856886
:1054D000002229466C48006800F0FEFE0446002CBD
:1054E00007D066488069002803D064488169204657
:1054F00088470AE061484069002806D001200090F2
:105500005E4841696846884700BF00205C490870D2
:1055100038BD10B50446A0885549088008222146A8
:105520000E315A4801F0D2FA00205349087053480E
:10553000C089002801D1FFF7ADFF10BD70B5054649
:105540000020C0434A49088000204B4908704E485B
:10555000006800F0F2FE0446002C07D0474880693E
:10556000002803D0454881692046884770BD70B542
:105570000546AC1D20884149C989884220D1208B2D
:1055800002281DD100BF00BFA17EE27E120211439E
:105590000846C107C90F002902D0FFF77BFF0FE0C3
:1055A0003948006800F0C9FE0646002E07D033488F
:1055B0008069002803D0314881693046884700BFA0
:1055C00070BD10B504460822A11D304801F07EFAD6
:1055D000FFF760FF10BD10B504462088102806D0E4
:1055E000112808D012280ED0502810D107E02046EC
:1055F000FFF78FFF0CE02046FFF7A0FF08E02046F2
:10560000FFF7B5FF04E02046FFF7DBFF00E000BF37
:1056100000BF10BD38B5044608222146134801F0EA
:1056200055FA12487ADF0546002D1CD11748FFF7BE
:10563000ABFE00280BD10120114908700B490C4822
:10564000008875DF054601200B4908700BE00B4808
:105650004069002806D0012000900848416968464A
:10566000884700BF0025284638BD000010200020D4
:105670001A200020FFFF00001820002048230020EF
:1056800028200020A7530100242000201C200020F7
:1056900070B506460C46154629462046FEF76FFEB5
:1056A00070BDF8B55A480078002800D1F8BD5948B7
:1056B0000068002801D1012000E00020054656487E
:1056C0000068002801D1012000E00020064600BF4C
:1056D000002D14D168464EDF0446052C01D101256A
:1056E0000CE0002C06D000BF4CA269212046FEF73A
:1056F0003BFE03E0474900980968884700BF002E39
:105700001AD154480088009069465348006860DF09
:105710000446052C01D101260DE0002C06D000BF67
:105720003EA280212046FEF71FFE04E04A480068A2
:1057300039490968884700BF002D02D0002E00D0EB
:1057400000E0C5E700BF00BFB0E7FFB581B00C4681
:1057500016461F46002C02D1072005B0F0BD20469A
:105760008107890F002901D1012100E000210029D2
:1057700001D10720F1E738480460364806803748F1
:1057800007603749019810DF0546002D01D02846F3
:10579000E3E701201E490870162023DFDDE710B57E
:1057A00011DF0446002C01D0012000E00020184940
:1057B0000870204610BD0146002901D10E20704717
:1057C000154801600020FAE70146002901D10E20AA
:1057D0007047104801600020FAE770B51F48006864
:1057E000002811D01D4800688047044600BF2546A8
:1057F000002D07D000BF09A2FF2133312846FEF754
:10580000B3FD00BF00BF01E0FFF74BFF70BD00001C
:10581000362000203C200020382000202E2E5C2E38
:105820002E5C2E2E5C2E2E5C2E2E5C2E2E5C536F4C
:10583000757263655C73645F636F6D6D6F6E5C73CF
:105840006F66746465766963655F68616E646C65D4
:10585000722E630034200020302000202C200020F5
:105860009156010000BF424880680128FBD100200A
:105870003F4988603F488069C0B2704770B50446B0
:105880000D4601260AE02046641E002804DB7D2028
:10589000C000FEF769FC01E0002603E034488068A0
:1058A0000128F0D100BF002C05DB002030498860C2
:1058B000304880692870304670BD2E49C86100BFED
:1058C0002B49C9690129FBD10021294AD1617047BF
:1058D00030B50346002528466D1C1C5C05E02046BB
:1058E000FFF7EBFF28466D1C1C5C002CF7D130BD88
:1058F000F8B507460C4615461E46204600F025F82A
:105900000021304600F02AF81A48C4604661069823
:1059100000280DD0384600F018F80021284600F085
:105920001DF8144805618760012012494031C862A2
:105930001148104948620420086001200F4988601E
:10594000086000200A498860F8BD0121052212077D
:1059500007231B02D2188300D150704710B58A006C
:1059600005231B07072424021B1984001A5110BDAC
:10597000002100400025004000509D000020004014
:1059800010B5002819DAFA4A03071B0F083B9B08D9
:105990009B00D2588307DC0EFF23A3409A438B075A
:1059A0001B0E8407E40EA3401A43F14B0407240F97
:1059B000083CA408A4001A5118E0EE4A03231B0275
:1059C000D21883089B00D2588307DC0EFF23A34024
:1059D0009A438B071B0E8407E40EA3401A43E54B42
:1059E000032424021B198408A4001A5110BD10B509
:1059F0000446E148846003211120FFF7C1FF10BD78
:105A000010B501200004DD494860DC494039486098
:105A1000112000F0DDFC112000F0CCFC0120D84961
:105A200008602F20FEF7B0FB10BD10B5112001213A
:105A30008140D04A8032116000BF01200004CF496C
:105A40008860CE49403988600120CD4948602F20C8
:105A5000FEF79AFB10BDF0B5024628205043C94B13
:105A60001B68C118C8480068401C002802D1C648FD
:105A7000026059E0C4488B68006828246043C14C28
:105A8000246800198068834217D8BF48006828231B
:105A90005843BC4B1B68C01880688B68C31ABA484F
:105AA000006828246043B74C246800198360B64816
:105AB00000684862B448026036E08B68B24D2C68DA
:105AC00028680DE028254543AE4E3668AD19AD680F
:105AD0005B1B044628254543AA4E3668AD19686A03
:105AE000451C002D07D028254543A64E3668AD1924
:105AF000AD689D42E6D3451C002D0CD028254543BA
:105B0000A04E3668AD19AD68EE1A282545439D4F65
:105B10003F68ED19AE608B60486228256543994E59
:105B20003668AD196A6200BFF0BD70B50246964C8A
:105B30002168084609E0904200D109E00146282486
:105B40004443904D2D686419606A441C002CF2D1C6
:105B500000BF441C002C00D170BD814209D18A4C89
:105B6000246828256C43874D2D686419646A864D26
:105B70002C6028244443834D2D686419A36828248D
:105B80004443804D2D686419656A28244C437D4E3A
:105B90003668A419656228244C437A4D2D6864192F
:105BA000606A441C002C0CD028244443754D2D6899
:105BB0006419A468E51828244443724E3668A41971
:105BC000A56000BFC8E710B5112000F0FAFB10BDBA
:105BD00010B5142000F0F5FB10BD70B504466B48FD
:105BE0000068002813D0694A216AE069126890476A
:105BF000054600BF2E46002E07D000BF64A2FF213D
:105C000055313046FEF7B0FB00BF00BF02E0E1694E
:105C1000206A884770BDF8B55B480068401C0028C2
:105C20003AD0002700F006FC04466548016820468B
:105C300000F003FC06465448056811E0282068433C
:105C4000504909684418A068B04200D90BE0A06828
:105C5000361AA068C719656A2046FFF7BEFF00BF65
:105C6000681C0028EAD100BF5648007856490978D8
:105C7000884209D154480078401CC0B2524908708B
:105C8000022801D1002008704F48007880004F4959
:105C90000F50FFF79DFF00BFF8BD0146494800784F
:105CA000494A127890421DD046480078401C454A27
:105CB000107010460078022801D100201070414871
:105CC00000788000414A105808603D4A0868126810
:105CD00080183B4A1060104600680002000A1060FD
:105CE000012070470020086000BFFAE7FEB5264893
:105CF0000068019036480078009074E00098C00079
:105D0000344909684418257869E0182068436168B7
:105D10000F18681CC5B2A078A84200D100253868C9
:105D2000022802D0032857D10EE028217868484382
:105D3000144909684618307E002804D07868FFF7B7
:105D4000F4FE0020307648E00CE00F490968282274
:105D500051430C4A12688818002101760A4A416AA8
:105D6000116000BF08480068401C0028EDD134E0F5
:105D70001CED00E000E100E000150140401301408F
:105D8000001001404420002050200020642000200A
:105D90002E2E5C2E2E5C2E2E5C2E2E5C2E2E5C2E3D
:105DA0002E5C536F757263655C6170705F636F6DBD
:105DB0006D6F6E5C6170705F74696D65722E6300EB
:105DC0005420002060200020612000205820002066
:105DD000482000204C20002000BF00BF00BF60789A
:105DE000A84292D100BF0098411EC9B2009100287C
:105DF00084D1FE4801680198814201D00120FEBD96
:105E00000020FCE7F0B50346002426E0F74E366894
:105E100028277E43F64F3F68F01986689E4203D9D3
:105E20008668F61A86601DE086689B1B86683419B2
:105E3000002686600676ED4E3568EC4F466A3E6079
:105E40004669002E08D00E193602360AC660466929
:105E5000066116684662156000BFE4480068401C91
:105E60000028D3D100BFF0BDFEB50746DF4800686B
:105E70000290E048007801906BE00198C000DE4994
:105E8000096845185DE0781C002807D03E462820A8
:105E90007043D74909684418676A23E029781823B2
:105EA00059436A6850182978491C29702978AA78BA
:105EB000914201D100212970466828217143CC4AC2
:105EC00012688C180168012902D1217E002900D0B6
:105ED00037E08168E160C168216101696161416900
:105EE000216200BFC549E0680968401A0002000A43
:105EF000C349884208D2C149E068096800F09DFAA8
:105F000021694018A06011E0BC48E168006800F019
:105F100094FA009021690098814204D9216900987F
:105F2000081AA06001E00020A06000BF0020E0602F
:105F3000206101202076801E60623046FFF78BFDD5
:105F400000BF781C00289ED12878697888429AD1B1
:105F500000BF0198411EC9B2019100288DD1A3480C
:105F600001680298814201D00120FEBD0020FCE7BB
:105F7000FEB505469D480068401C002835D09B486A
:105F80000068282148439A4909684018866800F04B
:105F900051FA0290994804682146029800F04DFA9F
:105FA000C01C0190681C002801D1FFF729FD019851
:105FB000B04201D2304600E0019804192402240ABC
:105FC00020469049086000BF00F034FA0090029922
:105FD000009800F032FAC71C2046029900F02DFA12
:105FE000874201D9FFF7EFFD01E0FFF71EFDFEBD7F
:105FF000FEB50020C0430190804804687B480768D4
:106000006846FFF74AFE0546FFF770FE0646002D7C
:1060100005D001AA21460098FFF7F4FE0126019859
:10602000FFF722FF002800D00126002E02D03846BC
:10603000FFF79EFFFEBD4170704770B502460B46EC
:106040005078411C9078884200D100211078884215
:1060500001D1002070BD1960507818267043556832
:106060002C182046F6E7FFB581B005460E461746C8
:10607000E900614A126888186946FFF7DEFF0446A6
:10608000002C02D1042005B0F0BD01202060666024
:1060900000F0D0F9A060E760049820610A98606180
:1060A000E900554A126888180099FFF7C4FFFFF706
:1060B0008FFD0020E7E7F8B504460E46E1004E4AA2
:1060C000126888186946FFF7B8FF0546002D01D110
:1060D0000420F8BD022028606E60E100464A126884
:1060E00088180099FFF7A7FFFFF772FD0020F0E77F
:1060F00038B50446E100404A126888186946FFF73F
:106100009CFF0546002D01D1042038BD03202860E6
:10611000001F6860E100384A126888180099FFF78C
:106120008AFFFFF755FD0020EFE710B50020364944
:1061300008600021344841608160C160002032491C
:10614000403908604860FFF766FD10BD10B5FFF7E5
:106150004FFF10BDFFB581B00E4617461C462046C6
:106160008107890F002901D1012100E000210029C8
:1061700002D1072005B0F0BD002C01D10720F9E7BE
:10618000FFF753FC21490A98086021480670184817
:10619000046000250CE0002128206843144A12689E
:1061A000115028206843124A1268801801766D1C2D
:1061B000B542F0DB28207043041903200D49087014
:1061C0000D480460183400250CE0E9000A4A126802
:1061D000881800210170417087704460182179434C
:1061E0000C196D1C032DF0DB002013E05020002063
:1061F00044200020482000204C2000205420002073
:10620000FFFF7F0040150140401101406420002045
:1062100040200020C0438B49086000208A49087054
:106220008A490870142000F0D3F803211420FFF7E6
:10623000A7FB142000F0BEF80198FFF7D8FB00F090
:10624000F9F883490860002094E770B503460C46CE
:1062500080480068002801D1082070BD002A01D1C3
:106260000720FAE7002B01D10720F6E700211CE008
:1062700028204843774D2D682858002814D101253F
:1062800028204843734E3668355028204843714DC6
:106290002D6840194460282048436E4D2D684019F0
:1062A000C26119600020D8E7491C6B480078814220
:1062B000DEDB0420D1E710B500F092F8012802D00F
:1062C000032804D101E0002403E0012401E00224BA
:1062D00000BF00BF204610BDFEB504460D46164661
:1062E0005C480068002801D10820FEBD5A480078AB
:1062F000844201D2052D01D20720F6E72820604311
:10630000544909680858012801D00820EDE72820E1
:1063100060435049096840184068012801D1284667
:1063200000E000200746FFF7C6FF3B462A4621460D
:1063300000960190FFF797FED7E770B504464548F1
:106340000068002801D1082070BD434800788442CD
:1063500001D30720F8E7282060433E490968085820
:10636000012801D00820EFE7FFF7A5FF05462146E9
:10637000FFF7A1FEE8E710B536480068002801D114
:10638000082010BDFFF797FF0446FFF7B1FEF8E7BE
:1063900010B5044600F04EF82060002010BD70B526
:1063A00005460E4614463146284600F046F8206061
:1063B000002070BDC206D20E01219140274A116013
:1063C0007047C206D20E01219140254A11607047E4
:1063D000C206D20E01219140214A803211607047DD
:1063E00010B520484068C105C90D002920D00A46D3
:1063F000103A104600280DDA1A4B1C330407240FFC
:10640000083CA408A4001B598407E40EE3401B06C3
:106410009B0F0BE0114B032424021B198408A400DA
:106420001B598407E40EE3401B069B0FD8B210BD36
:106430000420FCE70C48406870470246501A0002EE
:10644000000A7047502000206020002061200020BA
:1064500054200020442000204020002000E100E0E3
:1064600000E200E000ED00E000150140F8B5BB4897
:1064700005680020B949086008050721090240188D
:10648000066EB74805210907072212028918086617
:106490000520000711464018406E0090B0480521C5
:1064A00009078918486600BF01204006AD49886089
:1064B00000BF00BF4010886000BF0420FDF774FEDD
:1064C000A84800698001C00F002807D0A5480069CE
:1064D000C001C00F002801D0012422E000241227AF
:1064E00019E000BF012000069E49C86000BF0420DB
:1064F000FDF75AFE00BF012000069A49886000BFE0
:106500000420FDF751FE974800698001C00F002864
:1065100001D0012403E038467F1E0028E1D100BFEE
:1065200000BF052000070721090240180666052163
:1065300009070722120289180098486687480560F3
:106540002046F8BD10B58648401E052109070722E0
:106550001202891808660521090789184866002073
:1065600081498860C86118207C4988601920C8600A
:106570003320C004486205200860FFF777FF10BD94
:10658000F8B504460D461646784F002D01D100207F
:10659000F8BD20787149C861641C01207449886085
:1065A00031E000BF7048C069002806D16E48406ADB
:1065B000002802D1781E0700F4D1002F03D06A48CA
:1065C000406A002813D00020674948626349086088
:1065D0006849C8630520FDF7E7FD01206549C863E8
:1065E00005205E490860FFF7ADFF0020D0E70020DE
:1065F0005D49C861681EC0B2050000D104E0207882
:106600005649C861641CCCE700BF002E0AD00020A8
:106610005549486001205649486100BF52484068CA
:106620000028FBD00120B3E7F8B505460C46174615
:106630004E4E002C01D10020F8BD012C07D14C4852
:1066400014304D49512212018918486006E048482B
:106650001C304949512212018918486001204749DC
:10666000486000204049886001204149086041E0BD
:1066700000BF3D488068002806D13B48406A00289A
:1066800002D1701E0600F4D1002037498860002E28
:1066900003D00846406A002813D0002032494862DF
:1066A0002E4908603349C8630520FDF77DFD0120B0
:1066B0003049C863052029490860FFF743FF0020DF
:1066C000BAE72648806928706D1C601EC0B2044677
:1066D000012806D126481430274951221201891871
:1066E0004860002C00D106E01420FDF75DFD01207C
:1066F0001F490862BCE700BF00BF1B484068002874
:10670000FBD000201849486001201C49886000BF68
:1067100092E7F8B504460E4615461F460020009045
:10672000002D18DDFFF7A2FE002814D060100B49E1
:1067300080318860E007C00F002806D03A4629461D
:106740003046FFF771FF009005E03A462946304693
:10675000FFF716FF00900098F8BD000000450040CC
:106760000D0600000005005000410040204E0000D2
:1067700000400040C04F004000F0014000F50140E3
:1067800010B50446C948FDF71FFD0020C849087030
:1067900008464470012302227C20FFF7BAFF10BD97
:1067A00010B5C248FDF710FD0020C14908708020D7
:1067B0004870012302227C20FFF7ABFF002800D1A4
:1067C00010BD01231222BB497C20FFF7A2FF002845
:1067D00000D1F5E7C020B6494870012302227C2091
:1067E000FFF797FF002800D1EAE701231222B14901
:1067F0007C20FFF78EFF002800D1E1E70120DFE7D2
:1068000010B50446A948FDF7DFFC0020A849087030
:10681000702020434870012302227C20FFF779FF7B
:1068200010BD10B5A148FDF7CFFC0020A0490870AD
:106830000C204870012302227C20FFF76AFF10BD64
:1068400010B59A48FDF7C0FC00209949087008204F
:106850004870012302227C20FFF75BFF10BD30B59A
:106860000346954C002901D1002030BD1878934D86
:10687000E8615B1C0120924DA86022E000BF9148B6
:10688000C069002802D1601E0400F8D1002C0CD190
:1068900000208C4D68600120894D686100BF8948E7
:1068A00040680028FBD00020DFE70020854DE8612C
:1068B000481EC0B2010000D104E018787F4DE861A5
:1068C0005B1CDBE700BF002A0AD000207D4D68601A
:1068D00001207B4D686100BF7A4840680028FBD0EA
:1068E0000120C2E7F8B57C24002000900425002692
:1068F0000027601071498031886032462946684619
:10690000FFF7ADFF074600206E4948623846F8BDE4
:1069100010B5FFF717FE002800D110BDFFF7E2FF0A
:106920003820FFF72DFF002800D1F6E73920FFF7C8
:1069300027FF002800D1F0E71420FFF721FF0028EF
:1069400000D1EAE70820FFF75BFF002800D1E4E769
:106950005F20FFF715FF002800D1DEE76A20FFF770
:106960000FFF002800D1D8E75748FDF72DFCFFF7AF
:1069700058FF002800D1D0E7FFF712FF002800D110
:10698000CBE70620FFF7FCFEC7E7FFB581B0064660
:1069900017461D46002046490870E81980304870A7
:1069A000012302227C20FFF7B4FE002801D105B0AC
:1069B000F0BD1220401BC2B201233E497C20FFF7EC
:1069C000A8FE002800D1F2E7002039490870E81934
:1069D00080304870012302227C20FFF79AFE0028B5
:1069E00000D1E4E7402032490870002408E0102C70
:1069F00000D108E031782E4A601C1154761CC4B2D4
:106A000002988442F3DB00BF601CC2B20123284914
:106A10007C20FFF77EFECAE770B5044601231A46C4
:106A200023497F20FFF775FE002800D170BD204864
:106A300001781D258D43E807C00F002803D00020F2
:106A4000C043207008E010202840002802D0012018
:106A5000207001E00020207004202840002802D08F
:106A60000120607009E008202840002803D00020A1
:106A7000C043607001E0002060700120D6E738B5A7
:106A8000044601231A4669467F20FFF742FE00288C
:106A900000D138BD68460078C043C1B20091684655
:106AA0000078C006C00E20700120F2E71027000019
:106AB0006423002068200020204E00000045004094
:106AC0000040004000410040400D0300F8B5042A9A
:106AD0002CD3830712D00B78491C0370401C521E24
:106AE00083070BD00B78491C0370401C521E830790
:106AF00004D00B78491C0370401C521E8B079B0F5F
:106B000005D0C91ADF002023DE1B08C90AE0FDF703
:106B10006BFBF8BD1D4608C9FD401C46B4402C4324
:106B200010C0121F042AF5D2F308C91A521EF0D45D
:106B30000B78491C0370401C521EEAD40B78491C88
:106B40000370401C012AE4D409780170F8BD01E00B
:106B500004C0091F0429FBD28B0701D50280801CC9
:106B6000C90700D00270704700290BD0C30702D0BC
:106B70000270401C491E022904D3830702D50280FB
:106B8000801C891EE3E70022EEE70022DFE7704762
:106B900070477047754600F023F8AE460500694619
:106BA0005346C008C000854618B020B5FDF748FB25
:106BB00060BC00274908B6460026C0C5C0C5C0C590
:106BC000C0C5C0C5C0C5C0C5C0C5403D49008D4693
:106BD00070470446C046C0462046FDF7BEFA000096
:106BE000004870478423002001491820ABBEFEE70F
:106BF0002600020070470000010000009ECADC244D
:106C00000EE5A9E093F3A3B50000406E2C6C0100E3
:106C1000002000207C00000004410100A86C01005D
:106C20007C2000206C130000204101000024F400AF
:106C3000000000000000FFFF000000000000000056
:106C40000000000000000000000000000000000044
:106C50000000000000000000000000000000000034
:106C60000000000000000000000000000000000024
:106C70000000000000000000000000000000000014
:106C80000000000000000000000000000000000004
:106C90000000000040202020202020202020202054
:086CA00020202020202000002C
:04000005000140C1F5
:00000001FF
